{
  "contractName": "PropertyInfo",
  "abi": [
    {
      "anonymous": false,
      "inputs": [
        {
          "indexed": false,
          "internalType": "uint256",
          "name": "id",
          "type": "uint256"
        },
        {
          "indexed": true,
          "internalType": "address",
          "name": "owner",
          "type": "address"
        }
      ],
      "name": "PropertyRegistered",
      "type": "event"
    },
    {
      "anonymous": false,
      "inputs": [
        {
          "indexed": false,
          "internalType": "uint256",
          "name": "id",
          "type": "uint256"
        },
        {
          "indexed": true,
          "internalType": "address",
          "name": "from",
          "type": "address"
        },
        {
          "indexed": true,
          "internalType": "address",
          "name": "to",
          "type": "address"
        }
      ],
      "name": "PropertyTransferred",
      "type": "event"
    },
    {
      "anonymous": false,
      "inputs": [
        {
          "indexed": false,
          "internalType": "uint256",
          "name": "id",
          "type": "uint256"
        },
        {
          "indexed": false,
          "internalType": "string",
          "name": "location",
          "type": "string"
        },
        {
          "indexed": false,
          "internalType": "string",
          "name": "specifications",
          "type": "string"
        },
        {
          "indexed": false,
          "internalType": "bool",
          "name": "rentalStatus",
          "type": "bool"
        },
        {
          "indexed": false,
          "internalType": "string",
          "name": "maintenanceSchedule",
          "type": "string"
        },
        {
          "indexed": false,
          "internalType": "string[]",
          "name": "photos",
          "type": "string[]"
        }
      ],
      "name": "PropertyUpdated",
      "type": "event"
    },
    {
      "inputs": [
        {
          "internalType": "address",
          "name": "",
          "type": "address"
        },
        {
          "internalType": "uint256",
          "name": "",
          "type": "uint256"
        }
      ],
      "name": "ownerProperties",
      "outputs": [
        {
          "internalType": "uint256",
          "name": "",
          "type": "uint256"
        }
      ],
      "stateMutability": "view",
      "type": "function",
      "constant": true
    },
    {
      "inputs": [
        {
          "internalType": "uint256",
          "name": "",
          "type": "uint256"
        }
      ],
      "name": "properties",
      "outputs": [
        {
          "internalType": "string",
          "name": "location",
          "type": "string"
        },
        {
          "internalType": "string",
          "name": "specifications",
          "type": "string"
        },
        {
          "internalType": "bool",
          "name": "rentalStatus",
          "type": "bool"
        },
        {
          "internalType": "string",
          "name": "maintenanceSchedule",
          "type": "string"
        },
        {
          "internalType": "address",
          "name": "owner",
          "type": "address"
        }
      ],
      "stateMutability": "view",
      "type": "function",
      "constant": true
    },
    {
      "inputs": [],
      "name": "propertyCounter",
      "outputs": [
        {
          "internalType": "uint256",
          "name": "",
          "type": "uint256"
        }
      ],
      "stateMutability": "view",
      "type": "function",
      "constant": true
    },
    {
      "inputs": [
        {
          "internalType": "string",
          "name": "_location",
          "type": "string"
        },
        {
          "internalType": "string",
          "name": "_specifications",
          "type": "string"
        },
        {
          "internalType": "bool",
          "name": "_rentalStatus",
          "type": "bool"
        },
        {
          "internalType": "string",
          "name": "_maintenanceSchedule",
          "type": "string"
        },
        {
          "internalType": "string[]",
          "name": "_photos",
          "type": "string[]"
        }
      ],
      "name": "registerProperty",
      "outputs": [],
      "stateMutability": "nonpayable",
      "type": "function"
    },
    {
      "inputs": [
        {
          "internalType": "uint256",
          "name": "_id",
          "type": "uint256"
        },
        {
          "internalType": "string",
          "name": "_location",
          "type": "string"
        },
        {
          "internalType": "string",
          "name": "_specifications",
          "type": "string"
        },
        {
          "internalType": "bool",
          "name": "_rentalStatus",
          "type": "bool"
        },
        {
          "internalType": "string",
          "name": "_maintenanceSchedule",
          "type": "string"
        },
        {
          "internalType": "string[]",
          "name": "_photos",
          "type": "string[]"
        }
      ],
      "name": "updateProperty",
      "outputs": [],
      "stateMutability": "nonpayable",
      "type": "function"
    },
    {
      "inputs": [
        {
          "internalType": "uint256",
          "name": "_id",
          "type": "uint256"
        },
        {
          "internalType": "address",
          "name": "_newOwner",
          "type": "address"
        }
      ],
      "name": "transferProperty",
      "outputs": [],
      "stateMutability": "nonpayable",
      "type": "function"
    },
    {
      "inputs": [
        {
          "internalType": "uint256",
          "name": "_id",
          "type": "uint256"
        }
      ],
      "name": "getProperty",
      "outputs": [
        {
          "internalType": "string",
          "name": "location",
          "type": "string"
        },
        {
          "internalType": "string",
          "name": "specifications",
          "type": "string"
        },
        {
          "internalType": "bool",
          "name": "rentalStatus",
          "type": "bool"
        },
        {
          "internalType": "string",
          "name": "maintenanceSchedule",
          "type": "string"
        },
        {
          "internalType": "string[]",
          "name": "photos",
          "type": "string[]"
        },
        {
          "internalType": "address",
          "name": "owner",
          "type": "address"
        }
      ],
      "stateMutability": "view",
      "type": "function",
      "constant": true
    },
    {
      "inputs": [
        {
          "internalType": "address",
          "name": "_owner",
          "type": "address"
        }
      ],
      "name": "getOwnerProperties",
      "outputs": [
        {
          "internalType": "uint256[]",
          "name": "",
          "type": "uint256[]"
        }
      ],
      "stateMutability": "view",
      "type": "function",
      "constant": true
    }
  ],
  "bytecode": "0x608060405234801561001057600080fd5b50611e47806100206000396000f3fe608060405234801561001057600080fd5b50600436106100885760003560e01c8063cb6448971161005b578063cb6448971461012a578063d090e47e1461015a578063f7b1080814610178578063ff356237146101ac57610088565b80630f69d4241461008d57806332665ffb146100a957806368720a35146100de5780638f48bd5b146100fa575b600080fd5b6100a760048036038101906100a291906111e7565b6101c8565b005b6100c360048036038101906100be9190611308565b6103c1565b6040516100d596959493929190611510565b60405180910390f35b6100f860048036038101906100f3919061158d565b61071f565b005b610114600480360381019061010f91906116b6565b61088f565b6040516101219190611705565b60405180910390f35b610144600480360381019061013f9190611720565b6108c0565b604051610151919061180b565b60405180910390f35b610162610957565b60405161016f9190611705565b60405180910390f35b610192600480360381019061018d9190611308565b61095d565b6040516101a395949392919061182d565b60405180910390f35b6101c660048036038101906101c19190611895565b610b58565b005b600260008154809291906101db90611904565b91905055506040518060c0016040528086815260200185815260200184151581526020018381526020018281526020013373ffffffffffffffffffffffffffffffffffffffff168152506000806002548152602001908152602001600020600082015181600001908161024e9190611b58565b5060208201518160010190816102649190611b58565b5060408201518160020160006101000a81548160ff021916908315150217905550606082015181600301908161029a9190611b58565b5060808201518160040190805190602001906102b7929190610e95565b5060a08201518160050160006101000a81548173ffffffffffffffffffffffffffffffffffffffff021916908373ffffffffffffffffffffffffffffffffffffffff160217905550905050600160003373ffffffffffffffffffffffffffffffffffffffff1673ffffffffffffffffffffffffffffffffffffffff16815260200190815260200160002060025490806001815401808255809150506001900390600052602060002001600090919091909150553373ffffffffffffffffffffffffffffffffffffffff167ff16e2a0ca5373d3b3c5e53640bf2953ea25184f229ba20d421b5fc6a635e39456002546040516103b29190611705565b60405180910390a25050505050565b60608060006060806000806000808981526020019081526020016000206040518060c00160405290816000820180546103f99061197b565b80601f01602080910402602001604051908101604052809291908181526020018280546104259061197b565b80156104725780601f1061044757610100808354040283529160200191610472565b820191906000526020600020905b81548152906001019060200180831161045557829003601f168201915b5050505050815260200160018201805461048b9061197b565b80601f01602080910402602001604051908101604052809291908181526020018280546104b79061197b565b80156105045780601f106104d957610100808354040283529160200191610504565b820191906000526020600020905b8154815290600101906020018083116104e757829003601f168201915b505050505081526020016002820160009054906101000a900460ff161515151581526020016003820180546105389061197b565b80601f01602080910402602001604051908101604052809291908181526020018280546105649061197b565b80156105b15780601f10610586576101008083540402835291602001916105b1565b820191906000526020600020905b81548152906001019060200180831161059457829003601f168201915b5050505050815260200160048201805480602002602001604051908101604052809291908181526020016000905b8282101561068b5783829060005260206000200180546105fe9061197b565b80601f016020809104026020016040519081016040528092919081815260200182805461062a9061197b565b80156106775780601f1061064c57610100808354040283529160200191610677565b820191906000526020600020905b81548152906001019060200180831161065a57829003601f168201915b5050505050815260200190600101906105df565b5050505081526020016005820160009054906101000a900473ffffffffffffffffffffffffffffffffffffffff1673ffffffffffffffffffffffffffffffffffffffff1673ffffffffffffffffffffffffffffffffffffffff16815250509050806000015181602001518260400151836060015184608001518560a001519650965096509650965096505091939550919395565b8560008082815260200190815260200160002060050160009054906101000a900473ffffffffffffffffffffffffffffffffffffffff1673ffffffffffffffffffffffffffffffffffffffff163373ffffffffffffffffffffffffffffffffffffffff16146107c3576040517f08c379a00000000000000000000000000000000000000000000000000000000081526004016107ba90611c76565b60405180910390fd5b60008060008981526020019081526020016000209050868160000190816107ea9190611b58565b50858160010190816107fc9190611b58565b50848160020160006101000a81548160ff0219169083151502179055508381600301908161082a9190611b58565b5082816004019080519060200190610843929190610e95565b507fc80addb4ab3598706560d7a87620e4faa5966c2bc307c82a47e90406a7d0d2e288888888888860405161087d96959493929190611c96565b60405180910390a15050505050505050565b600160205281600052604060002081815481106108ab57600080fd5b90600052602060002001600091509150505481565b6060600160008373ffffffffffffffffffffffffffffffffffffffff1673ffffffffffffffffffffffffffffffffffffffff16815260200190815260200160002080548060200260200160405190810160405280929190818152602001828054801561094b57602002820191906000526020600020905b815481526020019060010190808311610937575b50505050509050919050565b60025481565b60006020528060005260406000206000915090508060000180546109809061197b565b80601f01602080910402602001604051908101604052809291908181526020018280546109ac9061197b565b80156109f95780601f106109ce576101008083540402835291602001916109f9565b820191906000526020600020905b8154815290600101906020018083116109dc57829003601f168201915b505050505090806001018054610a0e9061197b565b80601f0160208091040260200160405190810160405280929190818152602001828054610a3a9061197b565b8015610a875780601f10610a5c57610100808354040283529160200191610a87565b820191906000526020600020905b815481529060010190602001808311610a6a57829003601f168201915b5050505050908060020160009054906101000a900460ff1690806003018054610aaf9061197b565b80601f0160208091040260200160405190810160405280929190818152602001828054610adb9061197b565b8015610b285780601f10610afd57610100808354040283529160200191610b28565b820191906000526020600020905b815481529060010190602001808311610b0b57829003601f168201915b5050505050908060050160009054906101000a900473ffffffffffffffffffffffffffffffffffffffff16905085565b8160008082815260200190815260200160002060050160009054906101000a900473ffffffffffffffffffffffffffffffffffffffff1673ffffffffffffffffffffffffffffffffffffffff163373ffffffffffffffffffffffffffffffffffffffff1614610bfc576040517f08c379a0000000000000000000000000000000000000000000000000000000008152600401610bf390611c76565b60405180910390fd5b600073ffffffffffffffffffffffffffffffffffffffff168273ffffffffffffffffffffffffffffffffffffffff1603610c6b576040517f08c379a0000000000000000000000000000000000000000000000000000000008152600401610c6290611d5f565b60405180910390fd5b6000600160003373ffffffffffffffffffffffffffffffffffffffff1673ffffffffffffffffffffffffffffffffffffffff168152602001908152602001600020905060005b8180549050811015610d6f5784828281548110610cd157610cd0611d7f565b5b906000526020600020015403610d5c578160018380549050610cf39190611dae565b81548110610d0457610d03611d7f565b5b9060005260206000200154828281548110610d2257610d21611d7f565b5b906000526020600020018190555081805480610d4157610d40611de2565b5b60019003818190600052602060002001600090559055610d6f565b8080610d6790611904565b915050610cb1565b508260008086815260200190815260200160002060050160006101000a81548173ffffffffffffffffffffffffffffffffffffffff021916908373ffffffffffffffffffffffffffffffffffffffff160217905550600160008473ffffffffffffffffffffffffffffffffffffffff1673ffffffffffffffffffffffffffffffffffffffff1681526020019081526020016000208490806001815401808255809150506001900390600052602060002001600090919091909150558273ffffffffffffffffffffffffffffffffffffffff163373ffffffffffffffffffffffffffffffffffffffff167f2231fc8bc2c20e26d85d66dc7f13a6b6d535c86d2a4d678bb2de61f5b713608386604051610e879190611705565b60405180910390a350505050565b828054828255906000526020600020908101928215610edd579160200282015b82811115610edc578251829081610ecc9190611b58565b5091602001919060010190610eb5565b5b509050610eea9190610eee565b5090565b5b80821115610f0e5760008181610f059190610f12565b50600101610eef565b5090565b508054610f1e9061197b565b6000825580601f10610f305750610f4f565b601f016020900490600052602060002090810190610f4e9190610f52565b5b50565b5b80821115610f6b576000816000905550600101610f53565b5090565b6000604051905090565b600080fd5b600080fd5b600080fd5b600080fd5b6000601f19601f8301169050919050565b7f4e487b7100000000000000000000000000000000000000000000000000000000600052604160045260246000fd5b610fd682610f8d565b810181811067ffffffffffffffff82111715610ff557610ff4610f9e565b5b80604052505050565b6000611008610f6f565b90506110148282610fcd565b919050565b600067ffffffffffffffff82111561103457611033610f9e565b5b61103d82610f8d565b9050602081019050919050565b82818337600083830152505050565b600061106c61106784611019565b610ffe565b90508281526020810184848401111561108857611087610f88565b5b61109384828561104a565b509392505050565b600082601f8301126110b0576110af610f83565b5b81356110c0848260208601611059565b91505092915050565b60008115159050919050565b6110de816110c9565b81146110e957600080fd5b50565b6000813590506110fb816110d5565b92915050565b600067ffffffffffffffff82111561111c5761111b610f9e565b5b602082029050602081019050919050565b600080fd5b600061114561114084611101565b610ffe565b905080838252602082019050602084028301858111156111685761116761112d565b5b835b818110156111af57803567ffffffffffffffff81111561118d5761118c610f83565b5b80860161119a898261109b565b8552602085019450505060208101905061116a565b5050509392505050565b600082601f8301126111ce576111cd610f83565b5b81356111de848260208601611132565b91505092915050565b600080600080600060a0868803121561120357611202610f79565b5b600086013567ffffffffffffffff81111561122157611220610f7e565b5b61122d8882890161109b565b955050602086013567ffffffffffffffff81111561124e5761124d610f7e565b5b61125a8882890161109b565b945050604061126b888289016110ec565b935050606086013567ffffffffffffffff81111561128c5761128b610f7e565b5b6112988882890161109b565b925050608086013567ffffffffffffffff8111156112b9576112b8610f7e565b5b6112c5888289016111b9565b9150509295509295909350565b6000819050919050565b6112e5816112d2565b81146112f057600080fd5b50565b600081359050611302816112dc565b92915050565b60006020828403121561131e5761131d610f79565b5b600061132c848285016112f3565b91505092915050565b600081519050919050565b600082825260208201905092915050565b60005b8381101561136f578082015181840152602081019050611354565b60008484015250505050565b600061138682611335565b6113908185611340565b93506113a0818560208601611351565b6113a981610f8d565b840191505092915050565b6113bd816110c9565b82525050565b600081519050919050565b600082825260208201905092915050565b6000819050602082019050919050565b600082825260208201905092915050565b600061140b82611335565b61141581856113ef565b9350611425818560208601611351565b61142e81610f8d565b840191505092915050565b60006114458383611400565b905092915050565b6000602082019050919050565b6000611465826113c3565b61146f81856113ce565b935083602082028501611481856113df565b8060005b858110156114bd578484038952815161149e8582611439565b94506114a98361144d565b925060208a01995050600181019050611485565b50829750879550505050505092915050565b600073ffffffffffffffffffffffffffffffffffffffff82169050919050565b60006114fa826114cf565b9050919050565b61150a816114ef565b82525050565b600060c082019050818103600083015261152a818961137b565b9050818103602083015261153e818861137b565b905061154d60408301876113b4565b818103606083015261155f818661137b565b90508181036080830152611573818561145a565b905061158260a0830184611501565b979650505050505050565b60008060008060008060c087890312156115aa576115a9610f79565b5b60006115b889828a016112f3565b965050602087013567ffffffffffffffff8111156115d9576115d8610f7e565b5b6115e589828a0161109b565b955050604087013567ffffffffffffffff81111561160657611605610f7e565b5b61161289828a0161109b565b945050606061162389828a016110ec565b935050608087013567ffffffffffffffff81111561164457611643610f7e565b5b61165089828a0161109b565b92505060a087013567ffffffffffffffff81111561167157611670610f7e565b5b61167d89828a016111b9565b9150509295509295509295565b611693816114ef565b811461169e57600080fd5b50565b6000813590506116b08161168a565b92915050565b600080604083850312156116cd576116cc610f79565b5b60006116db858286016116a1565b92505060206116ec858286016112f3565b9150509250929050565b6116ff816112d2565b82525050565b600060208201905061171a60008301846116f6565b92915050565b60006020828403121561173657611735610f79565b5b6000611744848285016116a1565b91505092915050565b600081519050919050565b600082825260208201905092915050565b6000819050602082019050919050565b611782816112d2565b82525050565b60006117948383611779565b60208301905092915050565b6000602082019050919050565b60006117b88261174d565b6117c28185611758565b93506117cd83611769565b8060005b838110156117fe5781516117e58882611788565b97506117f0836117a0565b9250506001810190506117d1565b5085935050505092915050565b6000602082019050818103600083015261182581846117ad565b905092915050565b600060a0820190508181036000830152611847818861137b565b9050818103602083015261185b818761137b565b905061186a60408301866113b4565b818103606083015261187c818561137b565b905061188b6080830184611501565b9695505050505050565b600080604083850312156118ac576118ab610f79565b5b60006118ba858286016112f3565b92505060206118cb858286016116a1565b9150509250929050565b7f4e487b7100000000000000000000000000000000000000000000000000000000600052601160045260246000fd5b600061190f826112d2565b91507fffffffffffffffffffffffffffffffffffffffffffffffffffffffffffffffff8203611941576119406118d5565b5b600182019050919050565b7f4e487b7100000000000000000000000000000000000000000000000000000000600052602260045260246000fd5b6000600282049050600182168061199357607f821691505b6020821081036119a6576119a561194c565b5b50919050565b60008190508160005260206000209050919050565b60006020601f8301049050919050565b600082821b905092915050565b600060088302611a0e7fffffffffffffffffffffffffffffffffffffffffffffffffffffffffffffffff826119d1565b611a1886836119d1565b95508019841693508086168417925050509392505050565b6000819050919050565b6000611a55611a50611a4b846112d2565b611a30565b6112d2565b9050919050565b6000819050919050565b611a6f83611a3a565b611a83611a7b82611a5c565b8484546119de565b825550505050565b600090565b611a98611a8b565b611aa3818484611a66565b505050565b5b81811015611ac757611abc600082611a90565b600181019050611aa9565b5050565b601f821115611b0c57611add816119ac565b611ae6846119c1565b81016020851015611af5578190505b611b09611b01856119c1565b830182611aa8565b50505b505050565b600082821c905092915050565b6000611b2f60001984600802611b11565b1980831691505092915050565b6000611b488383611b1e565b9150826002028217905092915050565b611b6182611335565b67ffffffffffffffff811115611b7a57611b79610f9e565b5b611b84825461197b565b611b8f828285611acb565b600060209050601f831160018114611bc25760008415611bb0578287015190505b611bba8582611b3c565b865550611c22565b601f198416611bd0866119ac565b60005b82811015611bf857848901518255600182019150602085019450602081019050611bd3565b86831015611c155784890151611c11601f891682611b1e565b8355505b6001600288020188555050505b505050505050565b7f43616c6c6572206973206e6f74207468652070726f7065727479206f776e6572600082015250565b6000611c60602083611340565b9150611c6b82611c2a565b602082019050919050565b60006020820190508181036000830152611c8f81611c53565b9050919050565b600060c082019050611cab60008301896116f6565b8181036020830152611cbd818861137b565b90508181036040830152611cd1818761137b565b9050611ce060608301866113b4565b8181036080830152611cf2818561137b565b905081810360a0830152611d06818461145a565b9050979650505050505050565b7f496e76616c6964206e6577206f776e6572000000000000000000000000000000600082015250565b6000611d49601183611340565b9150611d5482611d13565b602082019050919050565b60006020820190508181036000830152611d7881611d3c565b9050919050565b7f4e487b7100000000000000000000000000000000000000000000000000000000600052603260045260246000fd5b6000611db9826112d2565b9150611dc4836112d2565b9250828203905081811115611ddc57611ddb6118d5565b5b92915050565b7f4e487b7100000000000000000000000000000000000000000000000000000000600052603160045260246000fdfea2646970667358221220d850f08a8cd50f553622f823d3f4dd4188802c1ad5309793b76de0de3e45da5b64736f6c63430008130033",
  "immutableReferences": {},
  "source": "// SPDX-License-Identifier: MIT\r\npragma solidity ^0.8.19;\r\n\r\ncontract PropertyInfo {\r\n    struct Property {\r\n        string location; // General area or exact address\r\n        string specifications; // Property specifications (size, rooms, etc.)\r\n        bool rentalStatus; // True if property is rented, false otherwise\r\n        string maintenanceSchedule; // Off-chain reference for maintenance schedules\r\n        string[] photos; // Off-chain reference for property photos\r\n        address owner; // Owner of the property\r\n    }\r\n\r\n    mapping(uint256 => Property) public properties;\r\n    mapping(address => uint256[]) public ownerProperties; // Track properties by owner\r\n    uint256 public propertyCounter;\r\n\r\n    event PropertyRegistered(uint256 id, address indexed owner);\r\n    event PropertyUpdated(uint256 id, string location, string specifications, bool rentalStatus, string maintenanceSchedule, string[] photos);\r\n    event PropertyTransferred(uint256 id, address indexed from, address indexed to);\r\n\r\n    modifier onlyPropertyOwner(uint256 _id) {\r\n        require(msg.sender == properties[_id].owner, \"Caller is not the property owner\");\r\n        _;\r\n    }\r\n\r\n    function registerProperty(\r\n        string memory _location,\r\n        string memory _specifications,\r\n        bool _rentalStatus,\r\n        string memory _maintenanceSchedule,\r\n        string[] memory _photos\r\n    ) public {\r\n        propertyCounter++;\r\n        properties[propertyCounter] = Property({\r\n            location: _location,\r\n            specifications: _specifications,\r\n            rentalStatus: _rentalStatus,\r\n            maintenanceSchedule: _maintenanceSchedule,\r\n            photos: _photos,\r\n            owner: msg.sender\r\n        });\r\n\r\n        ownerProperties[msg.sender].push(propertyCounter);\r\n\r\n        emit PropertyRegistered(propertyCounter, msg.sender);\r\n    }\r\n\r\n    function updateProperty(\r\n        uint256 _id,\r\n        string memory _location,\r\n        string memory _specifications,\r\n        bool _rentalStatus,\r\n        string memory _maintenanceSchedule,\r\n        string[] memory _photos\r\n    ) external onlyPropertyOwner(_id) {\r\n        Property storage prop = properties[_id];\r\n        prop.location = _location;\r\n        prop.specifications = _specifications;\r\n        prop.rentalStatus = _rentalStatus;\r\n        prop.maintenanceSchedule = _maintenanceSchedule;\r\n        prop.photos = _photos;\r\n\r\n        emit PropertyUpdated(_id, _location, _specifications, _rentalStatus, _maintenanceSchedule, _photos);\r\n    }\r\n\r\n    function transferProperty(uint256 _id, address _newOwner) public onlyPropertyOwner(_id) {\r\n        require(_newOwner != address(0), \"Invalid new owner\");\r\n\r\n        // Remove property from the current owner's list\r\n        uint256[] storage owned = ownerProperties[msg.sender];\r\n        for (uint256 i = 0; i < owned.length; i++) {\r\n            if (owned[i] == _id) {\r\n                owned[i] = owned[owned.length - 1]; // Replace with last element\r\n                owned.pop(); // Remove last element\r\n                break;\r\n            }\r\n        }\r\n\r\n        // Transfer ownership\r\n        properties[_id].owner = _newOwner;\r\n        ownerProperties[_newOwner].push(_id);\r\n\r\n        emit PropertyTransferred(_id, msg.sender, _newOwner);\r\n    }\r\n\r\n    function getProperty(uint256 _id) external view returns (\r\n        string memory location,\r\n        string memory specifications,\r\n        bool rentalStatus,\r\n        string memory maintenanceSchedule,\r\n        string[] memory photos,\r\n        address owner\r\n    ) {\r\n        Property memory prop = properties[_id];\r\n        return (\r\n            prop.location,\r\n            prop.specifications,\r\n            prop.rentalStatus,\r\n            prop.maintenanceSchedule,\r\n            prop.photos,\r\n            prop.owner\r\n        );\r\n    }\r\n\r\n    function getOwnerProperties(address _owner) external view returns (uint256[] memory) {\r\n        return ownerProperties[_owner];\r\n    }\r\n}\r\n",
  "sourcePath": "E:\\GitHub\\chainstaterealty\\contracts\\PropertyInfo.sol",
  "compiler": {
    "name": "solc",
    "version": "0.8.19+commit.7dd6d404.Emscripten.clang"
  },
  "schemaVersion": "3.4.16",
  "updatedAt": "2025-01-31T12:49:44.189Z",
  "networkType": "ethereum",
  "devdoc": {
    "kind": "dev",
    "methods": {},
    "version": 1
  },
  "userdoc": {
    "kind": "user",
    "methods": {},
    "version": 1
  }
}