{
  "contractName": "UserInfo",
  "abi": [
    {
      "inputs": [],
      "stateMutability": "nonpayable",
      "type": "constructor"
    },
    {
      "inputs": [],
      "name": "owner",
      "outputs": [
        {
          "internalType": "address",
          "name": "",
          "type": "address"
        }
      ],
      "stateMutability": "view",
      "type": "function",
      "constant": true
    },
    {
      "inputs": [
        {
          "internalType": "string",
          "name": "_firstname",
          "type": "string"
        },
        {
          "internalType": "string",
          "name": "_lastname",
          "type": "string"
        },
        {
          "internalType": "string",
          "name": "_email",
          "type": "string"
        },
        {
          "internalType": "string",
          "name": "_kycDocumentHash",
          "type": "string"
        },
        {
          "internalType": "string",
          "name": "_bankingInfoEncrypted",
          "type": "string"
        }
      ],
      "name": "registerUser",
      "outputs": [],
      "stateMutability": "nonpayable",
      "type": "function"
    },
    {
      "inputs": [],
      "name": "getUserInfo",
      "outputs": [
        {
          "internalType": "string",
          "name": "",
          "type": "string"
        },
        {
          "internalType": "string",
          "name": "",
          "type": "string"
        },
        {
          "internalType": "string",
          "name": "",
          "type": "string"
        }
      ],
      "stateMutability": "view",
      "type": "function",
      "constant": true
    }
  ],
  "bytecode": "0x608060405234801561001057600080fd5b50336000806101000a81548173ffffffffffffffffffffffffffffffffffffffff021916908373ffffffffffffffffffffffffffffffffffffffff160217905550610b90806100606000396000f3fe608060405234801561001057600080fd5b50600436106100415760003560e01c80635d8d1585146100465780638da5cb5b14610066578063ac9f0a4014610084575b600080fd5b61004e6100a0565b60405161005d9392919061057a565b60405180910390f35b61006e6103e8565b60405161007b9190610607565b60405180910390f35b61009e6004803603810190610099919061076b565b61040c565b005b60608060606000600160003373ffffffffffffffffffffffffffffffffffffffff1673ffffffffffffffffffffffffffffffffffffffff1681526020019081526020016000206040518060a0016040529081600082018054610101906108a1565b80601f016020809104026020016040519081016040528092919081815260200182805461012d906108a1565b801561017a5780601f1061014f5761010080835404028352916020019161017a565b820191906000526020600020905b81548152906001019060200180831161015d57829003601f168201915b50505050508152602001600182018054610193906108a1565b80601f01602080910402602001604051908101604052809291908181526020018280546101bf906108a1565b801561020c5780601f106101e15761010080835404028352916020019161020c565b820191906000526020600020905b8154815290600101906020018083116101ef57829003601f168201915b50505050508152602001600282018054610225906108a1565b80601f0160208091040260200160405190810160405280929190818152602001828054610251906108a1565b801561029e5780601f106102735761010080835404028352916020019161029e565b820191906000526020600020905b81548152906001019060200180831161028157829003601f168201915b505050505081526020016003820180546102b7906108a1565b80601f01602080910402602001604051908101604052809291908181526020018280546102e3906108a1565b80156103305780601f1061030557610100808354040283529160200191610330565b820191906000526020600020905b81548152906001019060200180831161031357829003601f168201915b50505050508152602001600482018054610349906108a1565b80601f0160208091040260200160405190810160405280929190818152602001828054610375906108a1565b80156103c25780601f10610397576101008083540402835291602001916103c2565b820191906000526020600020905b8154815290600101906020018083116103a557829003601f168201915b505050505081525050905080600001518160200151826040015193509350935050909192565b60008054906101000a900473ffffffffffffffffffffffffffffffffffffffff1681565b6040518060a0016040528086815260200185815260200184815260200183815260200182815250600160003373ffffffffffffffffffffffffffffffffffffffff1673ffffffffffffffffffffffffffffffffffffffff16815260200190815260200160002060008201518160000190816104879190610a88565b50602082015181600101908161049d9190610a88565b5060408201518160020190816104b39190610a88565b5060608201518160030190816104c99190610a88565b5060808201518160040190816104df9190610a88565b509050505050505050565b600081519050919050565b600082825260208201905092915050565b60005b83811015610524578082015181840152602081019050610509565b60008484015250505050565b6000601f19601f8301169050919050565b600061054c826104ea565b61055681856104f5565b9350610566818560208601610506565b61056f81610530565b840191505092915050565b600060608201905081810360008301526105948186610541565b905081810360208301526105a88185610541565b905081810360408301526105bc8184610541565b9050949350505050565b600073ffffffffffffffffffffffffffffffffffffffff82169050919050565b60006105f1826105c6565b9050919050565b610601816105e6565b82525050565b600060208201905061061c60008301846105f8565b92915050565b6000604051905090565b600080fd5b600080fd5b600080fd5b600080fd5b7f4e487b7100000000000000000000000000000000000000000000000000000000600052604160045260246000fd5b61067882610530565b810181811067ffffffffffffffff8211171561069757610696610640565b5b80604052505050565b60006106aa610622565b90506106b6828261066f565b919050565b600067ffffffffffffffff8211156106d6576106d5610640565b5b6106df82610530565b9050602081019050919050565b82818337600083830152505050565b600061070e610709846106bb565b6106a0565b90508281526020810184848401111561072a5761072961063b565b5b6107358482856106ec565b509392505050565b600082601f83011261075257610751610636565b5b81356107628482602086016106fb565b91505092915050565b600080600080600060a086880312156107875761078661062c565b5b600086013567ffffffffffffffff8111156107a5576107a4610631565b5b6107b18882890161073d565b955050602086013567ffffffffffffffff8111156107d2576107d1610631565b5b6107de8882890161073d565b945050604086013567ffffffffffffffff8111156107ff576107fe610631565b5b61080b8882890161073d565b935050606086013567ffffffffffffffff81111561082c5761082b610631565b5b6108388882890161073d565b925050608086013567ffffffffffffffff81111561085957610858610631565b5b6108658882890161073d565b9150509295509295909350565b7f4e487b7100000000000000000000000000000000000000000000000000000000600052602260045260246000fd5b600060028204905060018216806108b957607f821691505b6020821081036108cc576108cb610872565b5b50919050565b60008190508160005260206000209050919050565b60006020601f8301049050919050565b600082821b905092915050565b6000600883026109347fffffffffffffffffffffffffffffffffffffffffffffffffffffffffffffffff826108f7565b61093e86836108f7565b95508019841693508086168417925050509392505050565b6000819050919050565b6000819050919050565b600061098561098061097b84610956565b610960565b610956565b9050919050565b6000819050919050565b61099f8361096a565b6109b36109ab8261098c565b848454610904565b825550505050565b600090565b6109c86109bb565b6109d3818484610996565b505050565b5b818110156109f7576109ec6000826109c0565b6001810190506109d9565b5050565b601f821115610a3c57610a0d816108d2565b610a16846108e7565b81016020851015610a25578190505b610a39610a31856108e7565b8301826109d8565b50505b505050565b600082821c905092915050565b6000610a5f60001984600802610a41565b1980831691505092915050565b6000610a788383610a4e565b9150826002028217905092915050565b610a91826104ea565b67ffffffffffffffff811115610aaa57610aa9610640565b5b610ab482546108a1565b610abf8282856109fb565b600060209050601f831160018114610af25760008415610ae0578287015190505b610aea8582610a6c565b865550610b52565b601f198416610b00866108d2565b60005b82811015610b2857848901518255600182019150602085019450602081019050610b03565b86831015610b455784890151610b41601f891682610a4e565b8355505b6001600288020188555050505b50505050505056fea2646970667358221220a2e62304a2ef84b9c2d91d31c60e3cc7655761741e0a61546892b9224c72c12664736f6c63430008130033",
  "immutableReferences": {},
  "source": "// SPDX-License-Identifier: MIT\r\npragma solidity ^0.8.19;\r\n\r\ncontract UserInfo {\r\n    address public owner;\r\n    \r\n    struct User \r\n    {\r\n        string firstname;\r\n        string lastname;\r\n        string email;\r\n        string kycDocumentHash; // Reference to off-chain storage (e.g., IPFS hash)\r\n        string bankingInfoEncrypted; // Encrypted banking information\r\n    }\r\n    \r\n    mapping(address => User) private users;\r\n    \r\n    constructor() \r\n    {\r\n        owner = msg.sender; // Set contract deployer as owner\r\n    }\r\n\r\n    modifier onlyOwner() \r\n    {\r\n        require(msg.sender == owner, \"Not authorized\");\r\n        _;\r\n    }\r\n    \r\n    function registerUser(string memory _firstname, string memory _lastname, string memory _email, string memory _kycDocumentHash,  string memory _bankingInfoEncrypted) public \r\n    {\r\n        users[msg.sender] = User(_firstname, _lastname, _email, _kycDocumentHash, _bankingInfoEncrypted);\r\n    }\r\n    \r\n    function getUserInfo() public view returns (string memory, string memory, string memory) \r\n    {\r\n        User memory u = users[msg.sender]; // Retrieve user correctly\r\n        return (u.firstname, u.lastname, u.email);\r\n    }\r\n}",
  "sourcePath": "E:\\GitHub\\chainstaterealty\\contracts\\UserInfo.sol",
  "compiler": {
    "name": "solc",
    "version": "0.8.19+commit.7dd6d404.Emscripten.clang"
  },
  "schemaVersion": "3.4.16",
  "updatedAt": "2025-01-31T14:02:10.446Z",
  "networkType": "ethereum",
  "devdoc": {
    "kind": "dev",
    "methods": {},
    "version": 1
  },
  "userdoc": {
    "kind": "user",
    "methods": {},
    "version": 1
  }
}